{
  "contractName": "BlockBox",
  "abi": [
    {
      "inputs": [],
      "stateMutability": "nonpayable",
      "type": "constructor"
    },
    {
      "anonymous": false,
      "inputs": [
        {
          "indexed": false,
          "internalType": "uint256",
          "name": "fileId",
          "type": "uint256"
        },
        {
          "indexed": false,
          "internalType": "address payable",
          "name": "uploader",
          "type": "address"
        },
        {
          "indexed": false,
          "internalType": "string",
          "name": "fileHash",
          "type": "string"
        },
        {
          "indexed": false,
          "internalType": "string",
          "name": "fileType",
          "type": "string"
        },
        {
          "indexed": false,
          "internalType": "uint256",
          "name": "fileSize",
          "type": "uint256"
        },
        {
          "indexed": false,
          "internalType": "string",
          "name": "fileName",
          "type": "string"
        },
        {
          "indexed": false,
          "internalType": "uint256",
          "name": "uploadTime",
          "type": "uint256"
        }
      ],
      "name": "FileUploaded",
      "type": "event"
    },
    {
      "anonymous": false,
      "inputs": [
        {
          "indexed": true,
          "internalType": "address",
          "name": "previousOwner",
          "type": "address"
        },
        {
          "indexed": true,
          "internalType": "address",
          "name": "newOwner",
          "type": "address"
        }
      ],
      "name": "OwnershipTransferred",
      "type": "event"
    },
    {
      "anonymous": false,
      "inputs": [
        {
          "indexed": false,
          "internalType": "address",
          "name": "account",
          "type": "address"
        }
      ],
      "name": "Paused",
      "type": "event"
    },
    {
      "anonymous": false,
      "inputs": [
        {
          "indexed": false,
          "internalType": "address",
          "name": "account",
          "type": "address"
        }
      ],
      "name": "Unpaused",
      "type": "event"
    },
    {
      "stateMutability": "payable",
      "type": "fallback",
      "payable": true
    },
    {
      "inputs": [
        {
          "internalType": "address",
          "name": "",
          "type": "address"
        }
      ],
      "name": "balances",
      "outputs": [
        {
          "internalType": "uint256",
          "name": "",
          "type": "uint256"
        }
      ],
      "stateMutability": "view",
      "type": "function",
      "constant": true
    },
    {
      "inputs": [],
      "name": "fileCount",
      "outputs": [
        {
          "internalType": "uint256",
          "name": "",
          "type": "uint256"
        }
      ],
      "stateMutability": "view",
      "type": "function",
      "constant": true
    },
    {
      "inputs": [
        {
          "internalType": "uint256",
          "name": "",
          "type": "uint256"
        }
      ],
      "name": "files",
      "outputs": [
        {
          "internalType": "uint256",
          "name": "fileId",
          "type": "uint256"
        },
        {
          "internalType": "address payable",
          "name": "uploader",
          "type": "address"
        },
        {
          "internalType": "string",
          "name": "fileHash",
          "type": "string"
        },
        {
          "internalType": "string",
          "name": "fileType",
          "type": "string"
        },
        {
          "internalType": "uint256",
          "name": "fileSize",
          "type": "uint256"
        },
        {
          "internalType": "string",
          "name": "fileName",
          "type": "string"
        },
        {
          "internalType": "uint256",
          "name": "uploadTime",
          "type": "uint256"
        }
      ],
      "stateMutability": "view",
      "type": "function",
      "constant": true
    },
    {
      "inputs": [
        {
          "internalType": "string",
          "name": "",
          "type": "string"
        }
      ],
      "name": "hashAddress",
      "outputs": [
        {
          "internalType": "address",
          "name": "",
          "type": "address"
        }
      ],
      "stateMutability": "view",
      "type": "function",
      "constant": true
    },
    {
      "inputs": [],
      "name": "name",
      "outputs": [
        {
          "internalType": "string",
          "name": "",
          "type": "string"
        }
      ],
      "stateMutability": "view",
      "type": "function",
      "constant": true
    },
    {
      "inputs": [],
      "name": "owner",
      "outputs": [
        {
          "internalType": "address",
          "name": "",
          "type": "address"
        }
      ],
      "stateMutability": "view",
      "type": "function",
      "constant": true
    },
    {
      "inputs": [],
      "name": "paused",
      "outputs": [
        {
          "internalType": "bool",
          "name": "",
          "type": "bool"
        }
      ],
      "stateMutability": "view",
      "type": "function",
      "constant": true
    },
    {
      "inputs": [],
      "name": "renounceOwnership",
      "outputs": [],
      "stateMutability": "nonpayable",
      "type": "function"
    },
    {
      "inputs": [
        {
          "internalType": "address",
          "name": "newOwner",
          "type": "address"
        }
      ],
      "name": "transferOwnership",
      "outputs": [],
      "stateMutability": "nonpayable",
      "type": "function"
    },
    {
      "inputs": [],
      "name": "hitCircuitBreaker",
      "outputs": [],
      "stateMutability": "nonpayable",
      "type": "function"
    },
    {
      "inputs": [],
      "name": "killCircuitBreaker",
      "outputs": [],
      "stateMutability": "nonpayable",
      "type": "function"
    },
    {
      "inputs": [
        {
          "internalType": "string",
          "name": "_fileHash",
          "type": "string"
        },
        {
          "internalType": "string",
          "name": "_fileType",
          "type": "string"
        },
        {
          "internalType": "uint256",
          "name": "_fileSize",
          "type": "uint256"
        },
        {
          "internalType": "string",
          "name": "_fileName",
          "type": "string"
        }
      ],
      "name": "uploadFile",
      "outputs": [],
      "stateMutability": "nonpayable",
      "type": "function"
    },
    {
      "inputs": [
        {
          "internalType": "string",
          "name": "_hash",
          "type": "string"
        }
      ],
      "name": "payHash",
      "outputs": [],
      "stateMutability": "payable",
      "type": "function",
      "payable": true
    },
    {
      "inputs": [
        {
          "internalType": "uint256",
          "name": "_amount",
          "type": "uint256"
        }
      ],
      "name": "withdraw",
      "outputs": [],
      "stateMutability": "payable",
      "type": "function",
      "payable": true
    }
  ],
  "bytecode": "0x60806040526040518060400160405280600881526020017f426c6f636b426f78000000000000000000000000000000000000000000000000815250600290805190602001906200005192919062000145565b5060006003553480156200006457600080fd5b5060008060006101000a81548160ff0219169083151502179055506000620000916200013d60201b60201c565b905080600060016101000a81548173ffffffffffffffffffffffffffffffffffffffff021916908373ffffffffffffffffffffffffffffffffffffffff1602179055508073ffffffffffffffffffffffffffffffffffffffff16600073ffffffffffffffffffffffffffffffffffffffff167f8be0079c531659141344cd1fd0a4f28419497f9722a3daafe3b4186f6b6457e060405160405180910390a35060018081905550620001f4565b600033905090565b828054600181600116156101000203166002900490600052602060002090601f016020900481019282601f106200018857805160ff1916838001178555620001b9565b82800160010185558215620001b9579182015b82811115620001b85782518255916020019190600101906200019b565b5b509050620001c89190620001cc565b5090565b620001f191905b80821115620001ed576000816000905550600101620001d3565b5090565b90565b61201c80620002046000396000f3fe6080604052600436106100e15760003560e01c80635c975abb1161007f578063e53c869011610059578063e53c8690146104fd578063efdc358514610605578063f2fde38b146106c0578063f4c714b414610711576100e2565b80635c975abb14610460578063715018a61461048f5780638da5cb5b146104a6576100e2565b806327e235e3116100bb57806327e235e31461038b5780632e1a7d4d146103f05780633d68b73c1461041e5780634395351914610435576100e2565b806301846833146100e457806306fdde03146102e4578063164878d414610374576100e2565b5b005b3480156100f057600080fd5b506102e26004803603608081101561010757600080fd5b810190808035906020019064010000000081111561012457600080fd5b82018360208201111561013657600080fd5b8035906020019184600183028401116401000000008311171561015857600080fd5b91908080601f016020809104026020016040519081016040528093929190818152602001838380828437600081840152601f19601f820116905080830192505050505050509192919290803590602001906401000000008111156101bb57600080fd5b8201836020820111156101cd57600080fd5b803590602001918460018302840111640100000000831117156101ef57600080fd5b91908080601f016020809104026020016040519081016040528093929190818152602001838380828437600081840152601f19601f820116905080830192505050505050509192919290803590602001909291908035906020019064010000000081111561025c57600080fd5b82018360208201111561026e57600080fd5b8035906020019184600183028401116401000000008311171561029057600080fd5b91908080601f016020809104026020016040519081016040528093929190818152602001838380828437600081840152601f19601f8201169050808301925050505050505091929192905050506108e5565b005b3480156102f057600080fd5b506102f9610d7c565b6040518080602001828103825283818151815260200191508051906020019080838360005b8381101561033957808201518184015260208101905061031e565b50505050905090810190601f1680156103665780820380516001836020036101000a031916815260200191505b509250505060405180910390f35b34801561038057600080fd5b50610389610e1a565b005b34801561039757600080fd5b506103da600480360360208110156103ae57600080fd5b81019080803573ffffffffffffffffffffffffffffffffffffffff169060200190929190505050610eee565b6040518082815260200191505060405180910390f35b61041c6004803603602081101561040657600080fd5b8101908080359060200190929190505050610f06565b005b34801561042a57600080fd5b506104336111d4565b005b34801561044157600080fd5b5061044a611329565b6040518082815260200191505060405180910390f35b34801561046c57600080fd5b5061047561132f565b604051808215151515815260200191505060405180910390f35b34801561049b57600080fd5b506104a4611345565b005b3480156104b257600080fd5b506104bb6114cf565b604051808273ffffffffffffffffffffffffffffffffffffffff1673ffffffffffffffffffffffffffffffffffffffff16815260200191505060405180910390f35b34801561050957600080fd5b506105c36004803603602081101561052057600080fd5b810190808035906020019064010000000081111561053d57600080fd5b82018360208201111561054f57600080fd5b8035906020019184600183028401116401000000008311171561057157600080fd5b91908080601f016020809104026020016040519081016040528093929190818152602001838380828437600081840152601f19601f8201169050808301925050505050505091929192905050506114f8565b604051808273ffffffffffffffffffffffffffffffffffffffff1673ffffffffffffffffffffffffffffffffffffffff16815260200191505060405180910390f35b6106be6004803603602081101561061b57600080fd5b810190808035906020019064010000000081111561063857600080fd5b82018360208201111561064a57600080fd5b8035906020019184600183028401116401000000008311171561066c57600080fd5b91908080601f016020809104026020016040519081016040528093929190818152602001838380828437600081840152601f19601f820116905080830192505050505050509192919290505050611541565b005b3480156106cc57600080fd5b5061070f600480360360208110156106e357600080fd5b81019080803573ffffffffffffffffffffffffffffffffffffffff169060200190929190505050611738565b005b34801561071d57600080fd5b5061074a6004803603602081101561073457600080fd5b8101908080359060200190929190505050611948565b604051808881526020018773ffffffffffffffffffffffffffffffffffffffff1673ffffffffffffffffffffffffffffffffffffffff168152602001806020018060200186815260200180602001858152602001848103845289818151815260200191508051906020019080838360005b838110156107d65780820151818401526020810190506107bb565b50505050905090810190601f1680156108035780820380516001836020036101000a031916815260200191505b50848103835288818151815260200191508051906020019080838360005b8381101561083c578082015181840152602081019050610821565b50505050905090810190601f1680156108695780820380516001836020036101000a031916815260200191505b50848103825286818151815260200191508051906020019080838360005b838110156108a2578082015181840152602081019050610887565b50505050905090810190601f1680156108cf5780820380516001836020036101000a031916815260200191505b509a505050505050505050505060405180910390f35b6000809054906101000a900460ff1615610967576040517f08c379a00000000000000000000000000000000000000000000000000000000081526004018080602001828103825260108152602001807f5061757361626c653a207061757365640000000000000000000000000000000081525060200191505060405180910390fd5b600081511161097557600080fd5b600083511161098357600080fd5b600084511161099157600080fd5b600073ffffffffffffffffffffffffffffffffffffffff163373ffffffffffffffffffffffffffffffffffffffff1614156109cb57600080fd5b600082116109d857600080fd5b6109e56003546001611b72565b600381905550336005856040518082805190602001908083835b60208310610a2257805182526020820191506020810190506020830392506109ff565b6001836020036101000a038019825116818451168082178552505050505050905001915050908152602001604051809103902060006101000a81548173ffffffffffffffffffffffffffffffffffffffff021916908373ffffffffffffffffffffffffffffffffffffffff1602179055506040518060e0016040528060035481526020013373ffffffffffffffffffffffffffffffffffffffff168152602001858152602001848152602001838152602001828152602001428152506004600060035481526020019081526020016000206000820151816000015560208201518160010160006101000a81548173ffffffffffffffffffffffffffffffffffffffff021916908373ffffffffffffffffffffffffffffffffffffffff1602179055506040820151816002019080519060200190610b60929190611f1b565b506060820151816003019080519060200190610b7d929190611f1b565b506080820151816004015560a0820151816005019080519060200190610ba4929190611f1b565b5060c082015181600601559050507f8fb72750bdb8f03e330e77180e9340372b2a2c33b67636c279c0edadc375c832600354338686868642604051808881526020018773ffffffffffffffffffffffffffffffffffffffff1673ffffffffffffffffffffffffffffffffffffffff168152602001806020018060200186815260200180602001858152602001848103845289818151815260200191508051906020019080838360005b83811015610c68578082015181840152602081019050610c4d565b50505050905090810190601f168015610c955780820380516001836020036101000a031916815260200191505b50848103835288818151815260200191508051906020019080838360005b83811015610cce578082015181840152602081019050610cb3565b50505050905090810190601f168015610cfb5780820380516001836020036101000a031916815260200191505b50848103825286818151815260200191508051906020019080838360005b83811015610d34578082015181840152602081019050610d19565b50505050905090810190601f168015610d615780820380516001836020036101000a031916815260200191505b509a505050505050505050505060405180910390a150505050565b60028054600181600116156101000203166002900480601f016020809104026020016040519081016040528092919081815260200182805460018160011615610100020316600290048015610e125780601f10610de757610100808354040283529160200191610e12565b820191906000526020600020905b815481529060010190602001808311610df557829003601f168201915b505050505081565b610e22611bfa565b73ffffffffffffffffffffffffffffffffffffffff16600060019054906101000a900473ffffffffffffffffffffffffffffffffffffffff1673ffffffffffffffffffffffffffffffffffffffff1614610ee4576040517f08c379a00000000000000000000000000000000000000000000000000000000081526004018080602001828103825260208152602001807f4f776e61626c653a2063616c6c6572206973206e6f7420746865206f776e657281525060200191505060405180910390fd5b610eec611c02565b565b60066020528060005260406000206000915090505481565b6000809054906101000a900460ff1615610f88576040517f08c379a00000000000000000000000000000000000000000000000000000000081526004018080602001828103825260108152602001807f5061757361626c653a207061757365640000000000000000000000000000000081525060200191505060405180910390fd5b60026001541415611001576040517f08c379a000000000000000000000000000000000000000000000000000000000815260040180806020018281038252601f8152602001807f5265656e7472616e637947756172643a207265656e7472616e742063616c6c0081525060200191505060405180910390fd5b6002600181905550600073ffffffffffffffffffffffffffffffffffffffff163373ffffffffffffffffffffffffffffffffffffffff16141561104357600080fd5b80600660003373ffffffffffffffffffffffffffffffffffffffff1673ffffffffffffffffffffffffffffffffffffffff16815260200190815260200160002054116110f7576040517f08c379a00000000000000000000000000000000000000000000000000000000081526004018080602001828103825260128152602001807f4e6f7420456e6f7567682042616c616e6365000000000000000000000000000081525060200191505060405180910390fd5b3373ffffffffffffffffffffffffffffffffffffffff166108fc829081150290604051600060405180830381858888f1935050505015801561113d573d6000803e3d6000fd5b50611187600660003373ffffffffffffffffffffffffffffffffffffffff1673ffffffffffffffffffffffffffffffffffffffff1681526020019081526020016000205482611d0a565b600660003373ffffffffffffffffffffffffffffffffffffffff1673ffffffffffffffffffffffffffffffffffffffff168152602001908152602001600020819055506001808190555050565b6000809054906101000a900460ff16611255576040517f08c379a00000000000000000000000000000000000000000000000000000000081526004018080602001828103825260148152602001807f5061757361626c653a206e6f742070617573656400000000000000000000000081525060200191505060405180910390fd5b61125d611bfa565b73ffffffffffffffffffffffffffffffffffffffff16600060019054906101000a900473ffffffffffffffffffffffffffffffffffffffff1673ffffffffffffffffffffffffffffffffffffffff161461131f576040517f08c379a00000000000000000000000000000000000000000000000000000000081526004018080602001828103825260208152602001807f4f776e61626c653a2063616c6c6572206973206e6f7420746865206f776e657281525060200191505060405180910390fd5b611327611d54565b565b60035481565b60008060009054906101000a900460ff16905090565b61134d611bfa565b73ffffffffffffffffffffffffffffffffffffffff16600060019054906101000a900473ffffffffffffffffffffffffffffffffffffffff1673ffffffffffffffffffffffffffffffffffffffff161461140f576040517f08c379a00000000000000000000000000000000000000000000000000000000081526004018080602001828103825260208152602001807f4f776e61626c653a2063616c6c6572206973206e6f7420746865206f776e657281525060200191505060405180910390fd5b600073ffffffffffffffffffffffffffffffffffffffff16600060019054906101000a900473ffffffffffffffffffffffffffffffffffffffff1673ffffffffffffffffffffffffffffffffffffffff167f8be0079c531659141344cd1fd0a4f28419497f9722a3daafe3b4186f6b6457e060405160405180910390a360008060016101000a81548173ffffffffffffffffffffffffffffffffffffffff021916908373ffffffffffffffffffffffffffffffffffffffff160217905550565b60008060019054906101000a900473ffffffffffffffffffffffffffffffffffffffff16905090565b6005818051602081018201805184825260208301602085012081835280955050505050506000915054906101000a900473ffffffffffffffffffffffffffffffffffffffff1681565b6000809054906101000a900460ff16156115c3576040517f08c379a00000000000000000000000000000000000000000000000000000000081526004018080602001828103825260108152602001807f5061757361626c653a207061757365640000000000000000000000000000000081525060200191505060405180910390fd5b60008151116115d157600080fd5b600073ffffffffffffffffffffffffffffffffffffffff163373ffffffffffffffffffffffffffffffffffffffff16141561160b57600080fd5b60006005826040518082805190602001908083835b602083106116435780518252602082019150602081019050602083039250611620565b6001836020036101000a038019825116818451168082178552505050505050905001915050908152602001604051809103902060009054906101000a900473ffffffffffffffffffffffffffffffffffffffff1690506000600660008373ffffffffffffffffffffffffffffffffffffffff1673ffffffffffffffffffffffffffffffffffffffff1681526020019081526020016000205490506116f03482611b7290919063ffffffff16565b600660008473ffffffffffffffffffffffffffffffffffffffff1673ffffffffffffffffffffffffffffffffffffffff16815260200190815260200160002081905550505050565b611740611bfa565b73ffffffffffffffffffffffffffffffffffffffff16600060019054906101000a900473ffffffffffffffffffffffffffffffffffffffff1673ffffffffffffffffffffffffffffffffffffffff1614611802576040517f08c379a00000000000000000000000000000000000000000000000000000000081526004018080602001828103825260208152602001807f4f776e61626c653a2063616c6c6572206973206e6f7420746865206f776e657281525060200191505060405180910390fd5b600073ffffffffffffffffffffffffffffffffffffffff168173ffffffffffffffffffffffffffffffffffffffff161415611888576040517f08c379a0000000000000000000000000000000000000000000000000000000008152600401808060200182810382526026815260200180611fc16026913960400191505060405180910390fd5b8073ffffffffffffffffffffffffffffffffffffffff16600060019054906101000a900473ffffffffffffffffffffffffffffffffffffffff1673ffffffffffffffffffffffffffffffffffffffff167f8be0079c531659141344cd1fd0a4f28419497f9722a3daafe3b4186f6b6457e060405160405180910390a380600060016101000a81548173ffffffffffffffffffffffffffffffffffffffff021916908373ffffffffffffffffffffffffffffffffffffffff16021790555050565b60046020528060005260406000206000915090508060000154908060010160009054906101000a900473ffffffffffffffffffffffffffffffffffffffff1690806002018054600181600116156101000203166002900480601f016020809104026020016040519081016040528092919081815260200182805460018160011615610100020316600290048015611a205780601f106119f557610100808354040283529160200191611a20565b820191906000526020600020905b815481529060010190602001808311611a0357829003601f168201915b505050505090806003018054600181600116156101000203166002900480601f016020809104026020016040519081016040528092919081815260200182805460018160011615610100020316600290048015611abe5780601f10611a9357610100808354040283529160200191611abe565b820191906000526020600020905b815481529060010190602001808311611aa157829003601f168201915b505050505090806004015490806005018054600181600116156101000203166002900480601f016020809104026020016040519081016040528092919081815260200182805460018160011615610100020316600290048015611b625780601f10611b3757610100808354040283529160200191611b62565b820191906000526020600020905b815481529060010190602001808311611b4557829003601f168201915b5050505050908060060154905087565b600080828401905083811015611bf0576040517f08c379a000000000000000000000000000000000000000000000000000000000815260040180806020018281038252601b8152602001807f536166654d6174683a206164646974696f6e206f766572666c6f77000000000081525060200191505060405180910390fd5b8091505092915050565b600033905090565b6000809054906101000a900460ff1615611c84576040517f08c379a00000000000000000000000000000000000000000000000000000000081526004018080602001828103825260108152602001807f5061757361626c653a207061757365640000000000000000000000000000000081525060200191505060405180910390fd5b60016000806101000a81548160ff0219169083151502179055507f62e78cea01bee320cd4e420270b5ea74000d11b0c9f74754ebdbfc544b05a258611cc7611bfa565b604051808273ffffffffffffffffffffffffffffffffffffffff1673ffffffffffffffffffffffffffffffffffffffff16815260200191505060405180910390a1565b6000611d4c83836040518060400160405280601e81526020017f536166654d6174683a207375627472616374696f6e206f766572666c6f770000815250611e5b565b905092915050565b6000809054906101000a900460ff16611dd5576040517f08c379a00000000000000000000000000000000000000000000000000000000081526004018080602001828103825260148152602001807f5061757361626c653a206e6f742070617573656400000000000000000000000081525060200191505060405180910390fd5b60008060006101000a81548160ff0219169083151502179055507f5db9ee0a495bf2e6ff9c91a7834c1ba4fdd244a5e8aa4e537bd38aeae4b073aa611e18611bfa565b604051808273ffffffffffffffffffffffffffffffffffffffff1673ffffffffffffffffffffffffffffffffffffffff16815260200191505060405180910390a1565b6000838311158290611f08576040517f08c379a00000000000000000000000000000000000000000000000000000000081526004018080602001828103825283818151815260200191508051906020019080838360005b83811015611ecd578082015181840152602081019050611eb2565b50505050905090810190601f168015611efa5780820380516001836020036101000a031916815260200191505b509250505060405180910390fd5b5060008385039050809150509392505050565b828054600181600116156101000203166002900490600052602060002090601f016020900481019282601f10611f5c57805160ff1916838001178555611f8a565b82800160010185558215611f8a579182015b82811115611f89578251825591602001919060010190611f6e565b5b509050611f979190611f9b565b5090565b611fbd91905b80821115611fb9576000816000905550600101611fa1565b5090565b9056fe4f776e61626c653a206e6577206f776e657220697320746865207a65726f2061646472657373a2646970667358221220fd8f80a8b44a514f474559bbf786122c475b3caed52a8309d4222cd7f94f6dc364736f6c63430006000033",
  "source": "// SPDX-License-Identifier: GPL-3.0\r\npragma solidity ^0.6.0;\r\n\r\nimport \"@openzeppelin/contracts/utils/Pausable.sol\";\r\nimport \"@openzeppelin/contracts/Access/Ownable.sol\";\r\nimport \"@openzeppelin/contracts/math/SafeMath.sol\";\r\nimport \"@openzeppelin/contracts/utils/ReentrancyGuard.sol\";\r\n\r\n/// @title A storage contract that you can pay IPFS hash's ether\r\n/// @author Adam Scott Price\r\n/// @notice You can use this contract to upload files to IPFS system and send uploader a thankyou in the form of ether!!\r\n\r\ncontract BlockBox is Pausable, Ownable, ReentrancyGuard {\r\n    using SafeMath for uint256;\r\n\r\n    // Global Varaibles\r\n    /// @notice string that holds the contract name\r\n    string public name = \"BlockBox\";\r\n    /// @notice an integer to hold the total number of files stored in the cotract\r\n    uint256 public fileCount = 0;\r\n    ///@notice A mapping that hold all the uploaded file data including IPFS hash\r\n    mapping(uint256 => File) public files;\r\n    ///@notice A varaible that maps IPFS hash to an uploader's address\r\n    mapping(string => address) public hashAddress;\r\n    ///@notice A varaible that maps address balances\r\n    mapping(address => uint256) public balances;\r\n\r\n    ///@notice A struct that defines the uploaded file structure\r\n    struct File {\r\n        uint256 fileId;\r\n        address payable uploader;\r\n        string fileHash;\r\n        string fileType;\r\n        uint256 fileSize;\r\n        string fileName;\r\n        uint256 uploadTime;\r\n    }\r\n\r\n    ///@notice Event emitted when a fileUploaded function is called\r\n    event FileUploaded(\r\n        uint256 fileId,\r\n        address payable uploader,\r\n        string fileHash,\r\n        string fileType,\r\n        uint256 fileSize,\r\n        string fileName,\r\n        uint256 uploadTime\r\n    );\r\n\r\n    ///@dev constructor function construct openzepplin contracts\r\n    constructor() public Pausable() Ownable() ReentrancyGuard() {}\r\n\r\n    ///@notice runs when contract calls a function that does not exist\r\n    fallback() external payable {}\r\n\r\n    ///@notice stops interaction with the contract only contract admin can use this function\r\n    ///@dev called from the Pausable contract\r\n    function hitCircuitBreaker() external onlyOwner() {\r\n        _pause();\r\n    }\r\n\r\n    ///@notice restarts interaction with the contract\r\n    ///@dev called from the Pausable contract only callable by owner, only callable when paused()\r\n    function killCircuitBreaker() external whenPaused() onlyOwner() {\r\n        _unpause();\r\n    }\r\n\r\n    ///@notice uploads a file to IPFS and stores information\r\n    ///@dev hashaddress is mapped to hashaddress, filecount in incremented and sender address stored, event is also triggered\r\n\r\n    function uploadFile(\r\n        string memory _fileHash,\r\n        string memory _fileType,\r\n        uint256 _fileSize,\r\n        string memory _fileName\r\n    ) public whenNotPaused() {\r\n        // Require a file fileName\r\n        require(bytes(_fileName).length > 0);\r\n        // Require a file type\r\n        require(bytes(_fileType).length > 0);\r\n        // Require a file hash true\r\n        require(bytes(_fileHash).length > 0);\r\n        // Require a uploader address\r\n        require(msg.sender != address(0));\r\n        //Require file size\r\n        require(_fileSize > 0);\r\n\r\n        //Increment file count\r\n        fileCount = SafeMath.add(fileCount, 1);\r\n        //Map hash to sender address\r\n        hashAddress[_fileHash] = msg.sender;\r\n\r\n        //Store files\r\n        files[fileCount] = File(\r\n            fileCount,\r\n            msg.sender,\r\n            _fileHash,\r\n            _fileType,\r\n            _fileSize,\r\n            _fileName,\r\n            now\r\n        );\r\n        //Event Trigger\r\n        emit FileUploaded(\r\n            fileCount,\r\n            msg.sender,\r\n            _fileHash,\r\n            _fileType,\r\n            _fileSize,\r\n            _fileName,\r\n            now\r\n        );\r\n    }\r\n\r\n    ///@notice pays a stored IPFS hash a set amount of ether\r\n    ///@dev address cant be null and passed has length must be greater than 0.\r\n    ///@param _hash The IPFS has where the file is stored in the inter planetary file system\r\n\r\n    function payHash(string memory _hash) public payable whenNotPaused() {\r\n        require(bytes(_hash).length > 0);\r\n        require(msg.sender != address(0));\r\n\r\n        address uploader = hashAddress[_hash];\r\n        uint256 currBalance = balances[uploader];\r\n        balances[uploader] = currBalance.add(msg.value);\r\n    }\r\n\r\n    ///@notice withdraws funds you have stored against your address\r\n    ///@param _amount The amount you want to withdraw\r\n    function withdraw(uint256 _amount)\r\n        external\r\n        payable\r\n        whenNotPaused()\r\n        nonReentrant()\r\n    {\r\n        require(msg.sender != address(0));\r\n        require(balances[msg.sender] > _amount, \"Not Enough Balance\");\r\n\r\n        msg.sender.transfer(_amount);\r\n        balances[msg.sender] = SafeMath.sub(balances[msg.sender], _amount);\r\n    }\r\n}\r\n",
  "sourcePath": "F:/ConsenysBootcamp/BlockBox/contracts/BlockBox.sol",
  "compiler": {
    "name": "solc",
    "version": "0.6.0+commit.26b70077.Emscripten.clang"
  },
  "schemaVersion": "3.3.2",
  "updatedAt": "2020-12-02T00:51:49.394Z",
  "networkType": "ethereum",
  "devdoc": {
    "author": "Adam Scott Price",
    "methods": {
      "constructor": {
        "details": "constructor function construct openzepplin contracts"
      },
      "hitCircuitBreaker()": {
        "details": "called from the Pausable contract"
      },
      "killCircuitBreaker()": {
        "details": "called from the Pausable contract only callable by owner, only callable when paused()"
      },
      "owner()": {
        "details": "Returns the address of the current owner."
      },
      "paused()": {
        "details": "Returns true if the contract is paused, and false otherwise."
      },
      "payHash(string)": {
        "details": "address cant be null and passed has length must be greater than 0.",
        "params": {
          "_hash": "The IPFS has where the file is stored in the inter planetary file system"
        }
      },
      "renounceOwnership()": {
        "details": "Leaves the contract without owner. It will not be possible to call `onlyOwner` functions anymore. Can only be called by the current owner.     * NOTE: Renouncing ownership will leave the contract without an owner, thereby removing any functionality that is only available to the owner."
      },
      "transferOwnership(address)": {
        "details": "Transfers ownership of the contract to a new account (`newOwner`). Can only be called by the current owner."
      },
      "uploadFile(string,string,uint256,string)": {
        "details": "hashaddress is mapped to hashaddress, filecount in incremented and sender address stored, event is also triggered"
      },
      "withdraw(uint256)": {
        "params": {
          "_amount": "The amount you want to withdraw"
        }
      }
    },
    "title": "A storage contract that you can pay IPFS hash's ether"
  },
  "userdoc": {
    "methods": {
      "hitCircuitBreaker()": {
        "notice": "stops interaction with the contract only contract admin can use this function"
      },
      "killCircuitBreaker()": {
        "notice": "restarts interaction with the contract"
      },
      "payHash(string)": {
        "notice": "pays a stored IPFS hash a set amount of ether"
      },
      "uploadFile(string,string,uint256,string)": {
        "notice": "uploads a file to IPFS and stores information"
      },
      "withdraw(uint256)": {
        "notice": "withdraws funds you have stored against your address"
      }
    },
    "notice": "You can use this contract to upload files to IPFS system and send uploader a thankyou in the form of ether!!"
  }
}